:1000000012C02CC02BC02AC029C028C027C026C0BF
:1000100025C024C023C08FC321C020C01FC01EC064
:100020001DC01CC01BC011241FBECFE5D4E0DEBF25
:10003000CDBF10E0A0E6B0E0EEE5F7E002C005902D
:100040000D92A638B107D9F720E0A6E8B0E001C0CC
:100050001D92AB3BB207E1F7F8D27FC3D1CF87B394
:100060008C6287BB8DB180658DB9709A08956115DA
:10007000710551F0FC01680F791F91919FB9779B31
:10008000FECFE617F707C9F708956115710561F00E
:10009000FC01680F791F8FEF8FB9779BFECF9FB15F
:1000A0009193E617F707C1F708958FB9779BFECFB5
:1000B0008FB108950F931F93CF93DF938B01C42FBC
:1000C0009798F3DFD82F6C2F70E0C801DEDF979A86
:1000D0008D2FDF91CF911F910F9108950F931F9353
:1000E000CF93DF938B01C42F9798DFDFD82F6C2F2E
:1000F00070E0C801BCDF979A8D2FDF91CF911F91DF
:100100000F910895CF93DF931F92CDB7DEB7198279
:1001100041E0BE016F5F7F4F8F71CCDF89810F900F
:10012000DF91CF9108958F71C5DF0895CF93DF934D
:100130001F92CDB7DEB769838F7141E0BE016F5F5B
:100140007F4F8062CBDF0F90DF91CF9108958F7149
:100150008062C4DF0895CF93DF931F92CDB7DEB7DF
:100160008F77898341E0BE016F5F7F4F85E0EFDFCE
:100170000F90DF91CF91089540E060E070E082EE53
:10018000ADDF089540E060E070E081EEA7DF089504
:10019000462F613208F040E2BC0180EA9FDF0895FB
:1001A0001F93CF93DF931F92CDB7DEB7182F41E097
:1001B000BE016F5F7F4F86E0B6DF812F143008F0FD
:1001C00083E08370982F990F8981897F892B898398
:1001D00041E0BE016F5F7F4F86E0B9DF0F90DF9196
:1001E000CF911F9108951F93CF93DF931F92CDB7A7
:1001F000DEB7182F41E0BE016F5F7F4F86E093DFCF
:10020000812F133008F082E0813049F018F08230FD
:1002100059F00EC08981877F8062898309C08981F6
:10022000877F8F7D898304C0898188608F7D8983E2
:1002300041E0BE016F5F7F4F86E089DF0F90DF9165
:10024000CF911F9108951F93CF93DF931F92CDB746
:10025000DEB7182F41E0BE016F5F7F4F80E063DFA4
:10026000112361F089818860898391E0113009F45C
:1002700090E0898190FB82F9898303C08981877F1F
:10028000898341E0BE016F5F7F4F80E060DF0F90A8
:10029000DF91CF911F9108950F931F93CF93DF9319
:1002A0001F92CDB7DEB7863030F5062F182F41E00C
:1002B000BE016F5F7F4F8CE136DF002359F081E094
:1002C00090E002C0880F991F1A95E2F79981892B57
:1002D00089830BC081E090E002C0880F991F1A95B6
:1002E000E2F7809599818923898341E0BE016F5FA0
:1002F0007F4F8CE12CDF0F90DF91CF911F910F91F9
:1003000008951F93CF93DF931F92CDB7DEB7182FB9
:1003100041E0BE016F5F7F4F8DE105DF91E011117C
:1003200001C090E0898190FB82F9898341E0BE01A0
:100330006F5F7F4F8DE10BDF0F90DF91CF911F91AA
:100340000895CF93DF931F92CDB7DEB7803108F0C9
:100350008FE08F709981907F892B8983603108F0BD
:100360006FE06295607F89818F70682B698341E0BF
:10037000BE016F5F7F4F84E0EADE0F90DF91CF9187
:1003800008959698F9DEFEDE0895CF92DF92EF92FF
:10039000FF920F931F93CF93DF93863008F06DC0C9
:1003A000042F413208F000E2C82FD0E09E01220F56
:1003B000331FD901AC0FBD1FAA0FBB1FA856BF4FDB
:1003C00095E0FB0101900D929A95E1F7D901AC0FF0
:1003D000BD1FAA0FBB1FA956BF4F902F9F73292F78
:1003E000220F9C919178922B9C9391E0011190E0C7
:1003F0006B01182F7E01EE0CFF1CEC0EFD1E970109
:10040000220F331FA90149565F4F7A01FA018081FB
:1004100090FB80F98083692F812F3EDFF701808177
:1004200080FF02C081E06DDF123030F445E0B6019C
:100430008AE0810F8CDE05C041E0B6018AE0810FC1
:1004400086DECE01880F991FC80FD91FCC0FDD1F84
:10045000C956DF4F888180FD04C0602F81E1810F84
:1004600065DE82E04FDE61E070E002C0660F771F5C
:100470001A95E2F7682B82E059DEDF91CF911F9148
:100480000F91FF90EF90DF90CF90089540E060E0F3
:1004900070E08FEF0FDE0895682F87E047DE089544
:1004A000CF93DF931F92CDB7DEB741E0BE016F5F00
:1004B0007F4F80E038DE898181608260898341E0FE
:1004C000BE016F5F7F4F80E042DE80E7E5DF45E001
:1004D00068E970E08AE03BDE4FDE54DE969A8DE0FC
:1004E00091E00197F1F700C000000F90DF91CF91EC
:1004F0000895DF92EF92FF920F931F93CF93DF93B4
:1005000000D0CDB7DEB78C017B01D42E45E0BC0115
:100510008AE01DDE45E0B80180E119DE32DF41E00E
:10052000BE016F5F7F4F80E0FEDD99819E7F92600C
:10053000998341E0BE016F5F7F4F80E008DE8DE070
:1005400091E00197F1F700C000006D2DC70120DE9A
:10055000969A9AE19A95F1F700C0969884EF91E007
:10056000909396008093950091DF182F87EC90E090
:100570000197F1F700C0000020919500309196009E
:10058000215031093093960020939500812F80737C
:1005900019F4232B49F704C0232B11F080E37CDFEF
:1005A00041E0BE016F5F7F4F80E0BDDD89818160EA
:1005B0008D7F898341E0BE016F5F7F4F80E0C7DDA3
:1005C00015FF09C041E0BE016E5F7F4F88E0ABDDE3
:1005D0001A811F7001C01FEF63DF812F0F900F90F2
:1005E000DF91CF911F910F91FF90EF90DF900895D1
:1005F000CF93C82F8F9A8E9A979A969A30DD2FEFC5
:1006000080E792E0215080409040E1F700C0000078
:1006100064E08FE096DE83E0C3DD80E0E4DD82E02D
:1006200012DE80E739DF8C2F96DDA6DDABDD38DF0B
:10063000CF91089510BC83E389B9539A8AB1806938
:100640008AB980B5866880BD08952FEF8EE994E25F
:10065000215080409040E1F700C00000EBDF86E4CD
:10066000C7DF41E060E870E080E08FDE789481E0F1
:1006700080939400C0E6D0E080918700882309F43D
:1006800050C0F89480918600888340919400BE0108
:1006900080E890E02EDF882374F140919000509123
:1006A000910060919200709193004F5F5F4F6F4F88
:1006B0007F4F40939000509391006093920070930D
:1006C0009300082E000C990BAA0BBB0B40918C00D9
:1006D00050918D0060918E0070918F00840F951F56
:1006E000A61FB71F80938C0090938D00A0938E005F
:1006F000B0938F0013C08091880090918900A091E1
:100700008A00B0918B000196A11DB11D80938800D5
:1007100090938900A0938A00B0938B001092870079
:1007200078942FE788E391E0215080409040E1F7F2
:1007300000C00000A1CF1F920F920FB60F9211249C
:100740008F938CB18093860081E0809387008F9196
:0E0750000F900FBE0F901F901895F894FFCFDA
:10075E000102030405060708110203040506070833
:10076E0021020304050607083102030405060708E3
:06077E0001020304050066
:00000001FF
