:100000000C9431000C944E000C944E000C944E0055
:100010000C944E000C9442040C944E000C944E0030
:100020000C944E000C944E000C944E000C944E0018
:100030000C944E000C944E000C944E000C944E0008
:100040000C944E000C944E000C944E000C944E00F8
:100050000C944E00CC03B703BA03BD03C003C30323
:10006000C60311241FBECFE5D4E0DEBFCDBF10E034
:10007000A0E6B0E0E8ECF8E002C005900D92AA38E6
:10008000B107D9F720E0AAE8B0E001C01D92A13B7A
:10009000B207E1F70E94CF030C9462040C940000B5
:1000A00087B3806B87BB8DB180658DB9709A0895D9
:1000B0006115710551F0FC01680F791F91919FB98D
:1000C000779BFECFE617F707C9F70895611571050D
:1000D00061F0FC01680F791F8FEF8FB9779BFECF1E
:1000E0009FB19193E617F707C1F708958FB9779BF2
:1000F000FECF8FB108950F931F93CF93DF938B01A2
:10010000C42FDD980E947600D82F6C2F70E0C801B4
:100110000E946600DD9A8D2FDF91CF911F910F9184
:1001200008950F931F93CF93DF938B01C42FDD9816
:100130000E947600D82F6C2F70E0C8010E945800F2
:10014000DD9A8D2FDF91CF911F910F910895CF935D
:10015000DF931F92CDB7DEB7198241E0BE016F5F1A
:100160007F4F8F710E947B0089810F90DF91CF912B
:1001700008958F710E947B000895CF93DF931F92A3
:10018000CDB7DEB769838F7141E0BE016F5F7F4FEE
:1001900080620E9491000F90DF91CF9108958F713E
:1001A00080620E9491000895CF93DF931F92CDB794
:1001B000DEB78F77898341E0BE016F5F7F4F85E0B7
:1001C0000E94CF000F90DF91CF91089540E060E052
:1001D00070E082EE0E949100089540E060E070E0DF
:1001E00081EE0E9491000895462F613208F040E2AE
:1001F000BC0181E60E947B0008951F93CF93DF939B
:100200001F92CDB7DEB7182F41E0BE016F5F7F4F61
:1002100086E00E94B900812F143008F083E08370DB
:10022000982F990F8981897F892B898341E0BE01AD
:100230006F5F7F4F86E00E94CF000F90DF91CF91DC
:100240001F9108951F93CF93DF931F92CDB7DEB711
:10025000182F41E0BE016F5F7F4F86E00E94B9001A
:10026000812F133008F082E0813049F018F082309D
:1002700059F00EC08981877F8062898309C0898196
:10028000877F8F7D898304C0898188608F7D898382
:1002900041E0BE016F5F7F4F86E00E94CF000F906C
:1002A000DF91CF911F9108951F93CF93DF931F92FA
:1002B000CDB7DEB7182F41E0BE016F5F7F4F80E002
:1002C0000E94B900112361F089818860898391E0DF
:1002D000113009F490E0898190FB82F9898303C091
:1002E0008981877F898341E0BE016F5F7F4F80E016
:1002F0000E94CF000F90DF91CF911F9108950F932F
:100300001F93CF93DF931F92CDB7DEB7863040F5B2
:10031000062F182F41E0BE016F5F7F4F8CE10E94D6
:10032000B900002359F081E090E002C0880F991FC6
:100330001A95E2F79981892B89830BC081E090E0BF
:1003400002C0880F991F1A95E2F780959981892339
:10035000898341E0BE016F5F7F4F8CE10E94CF0037
:100360000F90DF91CF911F910F910895CF93DF935D
:100370001F92CDB7DEB7198241E0BE016F5F7F4F9C
:1003800080E60E947B0089810F90DF91CF910895D4
:100390001F93CF93DF931F92CDB7DEB7182F41E0A5
:1003A000BE016F5F7F4F8DE10E94B90091E0111196
:1003B00001C090E0898190FB82F9898341E0BE0110
:1003C0006F5F7F4F8DE10E94CF000F90DF91CF9143
:1003D0001F910895CF93DF931F92CDB7DEB7803181
:1003E00008F08FE08F709981907F892B898360312D
:1003F00008F06FE06295607F89818F70682B698358
:1004000041E0BE016F5F7F4F84E00E94CF000F90FC
:10041000DF91CF910895CF92DF92EF92FF920F93E9
:100420001F93CF93DF93863008F074C0042F4132BE
:1004300008F000E2C82FD0E09E01220F331FD9013F
:10044000AC0FBD1FAA0FBB1FA257BF4F95E0FB010A
:1004500001900D929A95E1F7D901AC0FBD1FAA0F3B
:10046000BB1FA357BF4F902F9F73292F220F9C9123
:100470009178922B9C9391E0011190E06B01182FE1
:100480007E01EE0CFF1CEC0EFD1E9701220F331FA8
:10049000A90143575F4F7A01FA01808190FB80F9EF
:1004A0008083692F812F0E947F01F701808180FF67
:1004B00003C081E00E94C801123038F445E0B60163
:1004C0008AE0810F0E94CF0006C041E0B6018AE0B9
:1004D000810F0E94CF00CE01880F991FC80FD91F2E
:1004E000CC0FDD1FC357DF4F888180FD05C0602F13
:1004F00081E1810F0E94BD0082E00E94A70061E0BF
:1005000070E002C0660F771F1A95E2F7682B82E051
:100510000E94BD00DF91CF911F910F91FF90EF904E
:10052000DF90CF90089540E060E070E08FEF0E9490
:100530007B000895682F87E00E94BD000895CF9347
:10054000DF931F92CDB7DEB741E0BE016F5F7F4FF3
:1005500080E00E94B900898181608260898341E0E6
:10056000BE016F5F7F4F80E00E94CF0080E70E9456
:100570009A0245E06EE870E08AE00E94CF000E9497
:10058000E6000E94ED00DC9A8DE091E00197F1F722
:1005900000C000000F90DF91CF910895EF92FF927D
:1005A0000F931F93CF937C018B010E949302C82F5E
:1005B00085FF03C080E20E949A02C6FF2AC0C6954A
:1005C000C770F701C0832C2F30E0F901EE0FFF1F39
:1005D000E20FF31FEE0FFF1FE357FF4F808180FFF5
:1005E00004C00E94B601C82F0CC0F901EE0FFF1F16
:1005F000E20FF31FEE0FFF1FE357FF4FC081C695B9
:10060000CF736C2FC8010E94F40080E40E949A020C
:1006100001C0C0E08C2FCF911F910F91FF90EF9000
:100620000895CF93C82FD59AD49ADD9ADC9A0E9468
:1006300050002FEF80E792E0215080409040E1F79A
:1006400000C0000064E08FE00E94EA0183E00E94A5
:10065000FD0080E00E94220182E00E94540180E7B8
:100660000E949A028C2F0E94D4000E94E6000E94F1
:10067000ED000E949F02CF91089588EC9298E3EFDD
:10068000F1E03197F1F700C00000929AE3EFF1E05A
:100690003197F1F700C00000815081F7089580E99B
:1006A00091E09298E3EFF1E03197F1F700C000009C
:1006B000929AE3EFF1E03197F1F700C00000019763
:1006C00081F708958AE090E0909363008093620040
:1006D00090936100809360000E944F0310928A0003
:1006E0002FEF81EE94E0215080409040E1F700C070
:1006F000000086E40E94110341E064E870E080E0BD
:100700000E940B022FEF81EE94E021508040904038
:10071000E1F700C00000089581B3806381BB82EAE5
:100720008FBD83E18EBD82EE94E097BD86BD809142
:100730006200909163009BBD8ABD809160009091A2
:10074000610099BD88BD80E289BF88BF089584B3E8
:100750008F6084BB15BA0895877090E0FC013197D3
:10076000E730F105B0F4E65DFF4F0C945C048FEACE
:1007700090E0089584EB90E008958CED90E008956A
:100780008CE291E0089588E592E0089581EE94E08E
:1007900008958AE090E008958AEA90E008952FEFA6
:1007A0008EE994E2215080409040E1F700C00000C3
:1007B0008A9A929A0E94A7030E948C0386E40E9460
:1007C000110341E064E870E080E00E940B020E94A7
:1007D0003D032FEF80E792E0215080409040E1F709
:1007E00000C000000E943D037894F89464E670E035
:1007F0008CE890E00E94CE0280938B0078948091E8
:100800008B00882371F1D09164008D2F8F70CD2FD4
:10081000C295CF70813019F4AB98AA9806C00E9497
:10082000AC039093630080936200C13019F4A898E0
:10083000A99807C08C2F0E94AC039093610080930D
:100840006000D3FF03C0AA98AB9A02C0AB98AA9AE3
:10085000C87019F0A898A99A02C0A998A89A1092ED
:100860008A008FE39CE90197F1F700C000008091B6
:100870008A008F5F80938A008F3108F4B6CF0E9480
:100880006203B3CF1F920F920FB60F9211248F9372
:100890009F9380916200909163009BBD8ABD80917F
:1008A00060009091610099BD88BD9F918F910F90DC
:1008B0000FBE0F901F901895EE0FFF1F0590F4913B
:0808C000E02D0994F894FFCF2C
:1008C8000A000A00FF0203040506070811020304D0
:1008D8000506070821020304050607083102030478
:0A08E80005060708010203040500DD
:00000001FF
