:100000000C9442000C9454000C9454000C94540032
:100010000C9454000C9454000C9454000C94540010
:100020000C9454000C9454000C9454000C94540000
:100030000C9454000C9454000C9454000C945400F0
:100040000C9454000C9454000C9454000C945400E0
:100050000C945400510256025B02600265026A026F
:100060006F02740279027E02830288028D0290027E
:100070009302960299029C029F02A202A502A80284
:10008000AB02AE0211241FBECFE5D4E0DEBFCDBF70
:1000900020E0A0E6B0E001C01D92AA36B207E1F769
:1000A0000E9497030C94FB030C9400009B01AC018D
:1000B00084B3836084BB60E072E18AE790E00E94D1
:1000C000C403DA01C9014097A109B109B695A79502
:1000D0009795879580B9089594EA96BF06B607FC70
:1000E0000EC04115510509F442C09A012150310951
:1000F00006B607FC05C021153105C1F738C09A01C5
:1001000091B1987F983021F091B1987F903119F595
:10011000232B19F16111816083B984E886BF06B68B
:1001200007FC0DC041155105D1F04150510906B6EB
:1001300007FC05C041155105C1F78DEF0895452B0A
:1001400081F091B1987F983171F081E0903409F499
:1001500080E0819508958DEF08958DEF08958DEFDE
:1001600008958DEF089580E008958DEF089581B191
:10017000887F8830D1F381B18DEF0895FC01680F3D
:10018000791F84E81BC0919193B986BF06B607FC1E
:100190000EC041155105B9F09A012150310906B63A
:1001A00007FC06C021153105C1F78DEF08959A01AE
:1001B000232B59F091B1987F983249F4E617F7074D
:1001C00011F780E008958DEF08958DEF08958FEF7A
:1001D000089524EC26BF06B607FC08C0009731F04E
:1001E000019706B607FC02C00097D1F783B10895C6
:1001F00024E826BF06B607FC08C0009731F0019737
:1002000006B607FC02C00097D1F783B10895EF92BC
:10021000FF920F931F93CF93DF937A01EC010FC0EE
:100220000115110531F0C7010E94E9008883B8016A
:1002300005C0C7010E94F8008883B80121968B0190
:1002400001501109672B61F784E986BF80E0DF91D7
:10025000CF911F910F91FF90EF9008958FEF8BBB7F
:10026000AC9808958FEF8ABB1BBA84B3806F84BBB0
:1002700085B3806F85BB2FEF82E597E021508040EA
:100280009040E1F700C000000E942E010895CF9336
:10029000DF93FB018C3A2AE0920748F4CCEADAE0DB
:1002A000C81BD90B87E190E09183808319C0EC01D2
:1002B000CC5ADA409E013695279536952795369586
:1002C0002795A5ECB0E20E94EC03929582958F7081
:1002D00089279F70892791838083892B09F453C0D4
:1002E0009E01369527953695279536952795A5EC49
:1002F000B0E20E94EC03AC01529542954F70452745
:100300005F70452728EE33E0429FC001439F900D68
:10031000529F900D1124AE01481B590B9A0136953E
:10032000279536952795ABE7B4E10E94EC039695A7
:1003300087959383828364E6689F9001699F300D5F
:100340001124421B530B9A01ADECBCEC0E94EC0350
:100350009695879596958795969587959C01265FA6
:100360003F4F358324839C01220F331F880F991F31
:10037000880F991F880F991F820F931F481B590BD5
:100380005783468305C084E190E091838083A8CFA2
:10039000DF91CF910895FC0181E090E05FEF01C013
:1003A00001969C0121503109408132964BBB21308E
:1003B000310579F038F02230310591F023303105E4
:1003C000B1F01EC0AC9A2AE12A95F1F700C0AC98B2
:1003D0001CC0AD9A2AE12A95F1F700C0AD9815C06E
:1003E000AE9A2AE12A95F1F700C0AE980EC0AF9AF6
:1003F0008AE18A95F1F700C0AF988FEF8BBB089523
:100400005BBB8430910564F208955BBBC9CF2F922A
:100410003F924F925F926F927F928F929F92AF9294
:10042000BF92CF92DF92EF92FF920F931F93CF93E1
:10043000DF93DC01089626E230E00F2EFEEFCF2E90
:10044000D12CF02D0F2EFEEEEF2EF12CF02D0FEF14
:1004500010E060E170E049E550E06894AA24A5F856
:10046000B12C0F2EF0E38F2E912CF02D0F2EF8E9EA
:100470006F2E712CF02D0F2EF0E54F2E512CF02DFC
:100480000F2EF2E42F2E312CF02DED01ED91FC9189
:100490001197E831F10508F064C0E65DFF4F0C9458
:1004A000E603E5E0F0E0F983E8835EC0EDEDF0E01F
:1004B000F983E88359C0E6E4F0E0F983E88354C0A7
:1004C000E4E5F0E0F983E8834FC0ECE9F0E0F9837C
:1004D000E8834AC0E4E3F0E0F983E88345C0E4E25E
:1004E000F0E0F983E88340C0EDE5F0E0F983E883CC
:1004F0003BC0E4E0F0E0F983E88336C0E4E1F0E0FB
:10050000F983E88331C0E1E0F0E0F983E8832CC0AF
:10051000E9EDF0E0F983E88327C03982288224C01E
:100520005982488221C0798268821EC0998288825D
:100530001BC0B982A88218C05983488315C019828C
:10054000188212C0798368830FC0198308830CC096
:100550003983288309C0F982E88206C0D982C8821B
:1005600003C011963C932E9312968A179B0709F0AD
:100570008CCFDF91CF911F910F91FF90EF90DF9083
:10058000CF90BF90AF909F908F907F906F905F9033
:100590004F903F902F90089560E670E00E944701D1
:1005A00080E690E00E94070280E690E00E94CB0186
:1005B0000895E0E6F0E084E190E09183808385E1B6
:1005C00090E09383828386E190E095838483978390
:1005D0008683CF010E94070280E690E00E94CB0153
:1005E000089580E690E00E94CB01089560EA76E8E5
:1005F00081E090E00E9456000895862798E027E069
:1006000088231CF4880F822701C0880F9150C1F7FE
:100610000895AF92BF92CF92DF92EF92FF920F9325
:100620001F93CF93DF9300D000D0CDB7DEB76C839C
:100630007A0148EE53E060E084EB0E946C00182FD2
:1006400060E084EB0E94FD02082F111148C048EEC3
:1006500053E061E070E0CE0104960E94BE00182FC6
:10066000602F8C810E94FD02082F11113AC048EEC4
:1006700053E061E084EB0E946C00182F602F85EB43
:100680000E94FD02082F11112EC048EE53E063E0D6
:1006900070E0CE0101960E940701811129C0CE01B0
:1006A00001966C015E0194E0A90EB11C602FF60169
:1006B00081916F010E94FD02082FCA14DB04B1F77B
:1006C000811113C08A8190E0982F88272981822B7D
:1006D00099236CF0F7019183808380E009C0812F1A
:1006E00007C0812F05C0812F03C08EEF01C086EFA8
:1006F0000F900F900F900F90DF91CF911F910F915E
:10070000FF90EF90DF90CF90BF90AF900895AB0136
:1007100067E00E9409030895CF93DF93C4E6D0E019
:100720000E94F1022197E1F7DF91CF9108950E9495
:10073000F6020E9432012FEF82E597E021508040BF
:100740009040E1F700C0000068E670E084EB0E9492
:100750008703182FC4E6D0E0112319F00E94D902B4
:1007600010C02091680030916900ADECBCEC0E9493
:10077000EC0396958795969587950E94CC020E94EA
:100780008C03219749F7E0CFA1E21A2EAA1BBB1BCD
:10079000FD010DC0AA1FBB1FEE1FFF1FA217B3074D
:1007A000E407F50720F0A21BB30BE40BF50B661F63
:1007B000771F881F991F1A9469F760957095809527
:1007C00090959B01AC01BD01CF010895EE0FFF1F75
:1007D0000590F491E02D0994A29FB001B39FC00150
:1007E000A39F700D811D1124911DB29F700D811D5D
:0A07F0001124911D0895F894FFCF25
:00000001FF
