:10000000C0C0DAC0D9C0D8C0D7C0D6C0A1C2D4C081
:10001000D3C0D2C0D1C0A8C2CFC0CEC0CDC0CCC08A
:10002000CBC0CAC0C9C00D506C61696E67204E61FB
:100030002074656265206B616B206E6120776F793B
:100040006E65000D506C6179205620747261766582
:1000500020736964656C2043757A6E656368696BAB
:10006000000D506C617920496D70657269616C207A
:100070006D6172636800436F6D6D616E64206E6FB9
:100080007420666F756E64000D4156522074656D64
:10009000696E616C200D200D76657273696F6E203C
:1000A0003030302E35200D637265617465642062D6
:1000B0007920426973686F7020576F726B73686F35
:1000C00070202020200D0D0D4D75736963426F78EF
:1000D00045646974696F6E200D0D54686572652002
:1000E00061726520736F6E677320696E206D656D38
:1000F0006F72793A0D0D53746172576172732049B2
:100100006D70657269616C206D617263680D527506
:10011000737369616E20666F6C6B20736F6E6720FE
:1001200043757A6E656368696B0D00546869732066
:100130007465726D696E616C20737570706F727426
:100140007320746865736520636F6D6D616E647391
:100150003A2020200D68656C70200D696E666F2056
:10016000200D636C72736372200D0D63757A6E657A
:100170006368696B20200D696D70657269616C0D33
:10018000000011241FBECFE5D4E0DEBFCDBF12E0DA
:10019000A0E6B0E0ECE2F6E002C005900D92A23DD0
:1001A000B107D9F722E0A2EDB2E001C01D92A33E53
:1001B000B207E1F7B0D038C223CF86E087BB1FBCBF
:1001C0001EBC15BC85B5886285BD8FB580648FBDAA
:1001D0008FB588608FBD80E989BF0895E2EDF2E0B8
:1001E00081EE92E01192E817F907E1F71092E2022E
:1001F0001092E1020895FC018FEC97E00197F1F76E
:1002000000C000008DE08CB98FE59AEE0197F1F700
:1002100000C000008491882361F084918CB98FE143
:100220009EE40197F1F700C000003196849181119E
:10023000F4CF8DE08CB992E09A95F1F700C0089563
:1002400081E690E0D8DFE8E9F0E028EB31E0DF017B
:10025000808191818A3942E0940721F48EB58E7FA6
:100260008EBD05C09BBD8ABD8EB581608EBD1296C8
:100270008D919C9113978830910509F130F482306B
:10028000910549F0049789F037C08C30910509F148
:10029000409749F131C08FEF99E648E18150904095
:1002A0004040E1F700C0000027C08FEF94E34CE02E
:1002B000815090404040E1F700C000001DC08FE732
:1002C0009AE146E0815090404040E1F700C00000D4
:1002D00013C08FEF9DE249E0815090404040E1F72C
:1002E00000C0000009C08FE793E143E081509040D7
:1002F0004040E1F700C000008EB58E7F8EBD8FE0DC
:1003000097E20197F1F700C000003496E217F30777
:1003100009F09DCF0895789450DF789491DFFFCF56
:1003200083E490E068DFE8EBF1E028EA32E08081E6
:1003300091819BBD8ABD8EB581608EBD8281938186
:100340008430910509F130F48130910549F002972C
:1003500089F037C08630910509F1089749F131C01D
:100360004FE38DE093E0415080409040E1F700C0C2
:10037000000027C04FE78AE196E04150804090405E
:10038000E1F700C000001DC04FEF84E39CE0415046
:1003900080409040E1F700C0000013C04FE78FE4B9
:1003A00092E1415080409040E1F700C0000009C058
:1003B0004FEF89E698E1415080409040E1F700C05E
:1003C00000008EB58E7F8EBD8FE097E20197F1F72A
:1003D00000C000003496E217F30709F0A8CF089593
:1003E00086E290E008DF809160008823D1F0E1E6AA
:1003F000F0E097E083BD95BD2FEB39E881E0215017
:1004000030408040E1F700C000008EB58B7F8EBD8C
:10041000AFE0B7E21197F1F700C0000081918111C0
:10042000E9CF089586E790E0E6DE089582E39CE058
:100430009CB9EFE9FFE03197F1F700C0000081506F
:10044000B9F70895FC012081222389F0FB01308156
:1004500023130FC0FC013196DB01119603C08D916F
:10046000981309C091919111FACF81E0089581E02C
:10047000089580E0089580E00895CF93DF93EC0124
:100480008881882309F460C0FE01319690E09F5F67
:1004900021912111FCCF953061F128F4913061F068
:1004A000943089F051C09830C9F1993009F441C0B5
:1004B000963009F049C028C08F3309F046C08BE25E
:1004C00091E099DE42C068EA72E0CE01BBDF813084
:1004D00021F48BE291E08FDE38C06DEA72E0CE014C
:1004E000B1DF813021F488E890E085DE2EC09ADF0C
:1004F0002CC062EB72E0CE01A5DF813019F4789454
:100500006FDF23C08FDF21C068EB72E0CE019ADF7E
:10051000813011F48BDF19C085DF17C06FEB72E0FB
:10052000CE0190DF813019F478948ADE0EC07ADF34
:100530000CC068EC72E0CE0185DF813019F478944C
:10054000EFDE03C06FDF01C06DDFDF91CF91089553
:100550001F920F920FB60F9211241DBC1CBC0F905E
:100560000FBE0F901F9018951F920F920FB60F920B
:1005700011242F933F934F935F936F937F938F93A8
:100580009F93AF93BF93EF93FF93F8948CB18093B5
:10059000E10287E795E00197F1F700C00000809144
:1005A000E1028CB98091E1028A3051F08D3019F06E
:1005B0008830C9F40AC082ED92E05FDF0FDE22C00E
:1005C00082ED92E05ADF0ADE1DC08091E2028823AC
:1005D00019F081508093E202E091E202F0E0EE52E5
:1005E000FD4F10820FC09091E2029F3048F4E92F36
:1005F000F0E0EE52FD4F80839F5F9093E20202C0D5
:1006000011DFECDD7894FF91EF91BF91AF919F9155
:100610008F917F916F915F914F913F912F910F90AB
:0C0620000FBE0F901F901895F894FFCFAC
:10062C0023002E00270023002E0023002500270086
:10063C002E00290027002E00290027001D00230072
:10064C001F001D0023001D00190017001D001900BC
:10065C00170019001D001900B84F0400B84F040012
:10066C00B84F040072640C0009431000B84F04002A
:10067C0072640C0009431000B84F04009A02040085
:10068C0035350400353504003535040038320C009E
:10069C00094310007654040072640C0009431000E6
:1006AC00B84F0200DC270400B84F0C00B84F100004
:1006BC00DC2704003B2A0C00BE2C1000672F100016
:1006CC0038321000672F08009A0208007C4B080093
:1006DC005F380400B93B0C00453F10000943100083
:1006EC0006471000094308009A02080072640800CB
:1006FC007654040072640C00765410000943040014
:10070C00B84F0C000943100035350200DC270400FB
:10071C00B84F0C00B84F1000DC2704003B2A0C002B
:10072C0035351000672F100038321000672F080085
:10073C009A0208007C4B08005F380400B93B0C009F
:10074C00453F1000094310000647100009430800FC
:10075C009A020800726408007654040072640C005B
:10076C0009431000B84F040072640C0009431000D8
:10077C00B84F02000000000006470200CE5E0200E7
:10078C0006470200CE5E0200064702007C4B0200C8
:10079C007C4B04007C4B0200CE5E02007C4B0200C2
:1007AC00CE5E02007C4B02000647020006470400A6
:1007BC0006470200CE5E020006470200CE5E020033
:1007CC00064702007C4B02007C4B04007C4B020071
:1007DC00CE5E02007C4B0200CE5E02007C4B02001F
:1007EC000647060006470200453F0200453F010050
:1007FC00453F0100453F0200453F0200B93B020066
:10080C00B93B0100B93B0100B93B0200B93B020006
:10081C00B93B0200453F0200064702007C4B020038
:10082C00064702000647040006470200453F020047
:10083C00453F0100453F0100453F0200453F020096
:10084C00B93B0200B93B0100B93B0100B93B0200C6
:10085C00B93B0200B93B0200453F020006470200CB
:10086C007C4B02000647080068656C7000696E6678
:10087C006F006F6E77617200636C727363720069E4
:10088C006D70657269616C0063757A6E6563686919
:02089C006B00EF
:00000001FF
